{
  "_format": "hh3-artifact-1",
  "contractName": "SubscriptionManager",
  "sourceName": "contracts/SubscriptionManager.sol",
  "abi": [
    {
      "inputs": [
        {
          "internalType": "address",
          "name": "_usdc",
          "type": "address"
        },
        {
          "internalType": "address",
          "name": "_feeRecipient",
          "type": "address"
        }
      ],
      "stateMutability": "nonpayable",
      "type": "constructor"
    },
    {
      "inputs": [],
      "name": "InsufficientAllowance",
      "type": "error"
    },
    {
      "inputs": [],
      "name": "InsufficientBalance",
      "type": "error"
    },
    {
      "inputs": [],
      "name": "InvalidAmount",
      "type": "error"
    },
    {
      "inputs": [],
      "name": "InvalidInterval",
      "type": "error"
    },
    {
      "inputs": [],
      "name": "InvalidMerchant",
      "type": "error"
    },
    {
      "inputs": [],
      "name": "MaxRetriesReached",
      "type": "error"
    },
    {
      "inputs": [],
      "name": "NotPolicyOwner",
      "type": "error"
    },
    {
      "inputs": [],
      "name": "NothingToWithdraw",
      "type": "error"
    },
    {
      "inputs": [
        {
          "internalType": "address",
          "name": "owner",
          "type": "address"
        }
      ],
      "name": "OwnableInvalidOwner",
      "type": "error"
    },
    {
      "inputs": [
        {
          "internalType": "address",
          "name": "account",
          "type": "address"
        }
      ],
      "name": "OwnableUnauthorizedAccount",
      "type": "error"
    },
    {
      "inputs": [],
      "name": "PolicyNotActive",
      "type": "error"
    },
    {
      "inputs": [],
      "name": "PolicyNotFailedEnough",
      "type": "error"
    },
    {
      "inputs": [],
      "name": "ReentrancyGuardReentrantCall",
      "type": "error"
    },
    {
      "inputs": [
        {
          "internalType": "address",
          "name": "token",
          "type": "address"
        }
      ],
      "name": "SafeERC20FailedOperation",
      "type": "error"
    },
    {
      "inputs": [],
      "name": "SpendingCapExceeded",
      "type": "error"
    },
    {
      "inputs": [],
      "name": "TooSoonToCharge",
      "type": "error"
    },
    {
      "anonymous": false,
      "inputs": [
        {
          "indexed": true,
          "internalType": "bytes32",
          "name": "policyId",
          "type": "bytes32"
        },
        {
          "indexed": false,
          "internalType": "string",
          "name": "reason",
          "type": "string"
        }
      ],
      "name": "ChargeFailed",
      "type": "event"
    },
    {
      "anonymous": false,
      "inputs": [
        {
          "indexed": true,
          "internalType": "bytes32",
          "name": "policyId",
          "type": "bytes32"
        },
        {
          "indexed": true,
          "internalType": "address",
          "name": "payer",
          "type": "address"
        },
        {
          "indexed": true,
          "internalType": "address",
          "name": "merchant",
          "type": "address"
        },
        {
          "indexed": false,
          "internalType": "uint128",
          "name": "amount",
          "type": "uint128"
        },
        {
          "indexed": false,
          "internalType": "uint128",
          "name": "protocolFee",
          "type": "uint128"
        }
      ],
      "name": "ChargeSucceeded",
      "type": "event"
    },
    {
      "anonymous": false,
      "inputs": [
        {
          "indexed": true,
          "internalType": "address",
          "name": "recipient",
          "type": "address"
        },
        {
          "indexed": false,
          "internalType": "uint256",
          "name": "amount",
          "type": "uint256"
        }
      ],
      "name": "FeesWithdrawn",
      "type": "event"
    },
    {
      "anonymous": false,
      "inputs": [
        {
          "indexed": true,
          "internalType": "address",
          "name": "previousOwner",
          "type": "address"
        },
        {
          "indexed": true,
          "internalType": "address",
          "name": "newOwner",
          "type": "address"
        }
      ],
      "name": "OwnershipTransferred",
      "type": "event"
    },
    {
      "anonymous": false,
      "inputs": [
        {
          "indexed": true,
          "internalType": "bytes32",
          "name": "policyId",
          "type": "bytes32"
        },
        {
          "indexed": true,
          "internalType": "address",
          "name": "payer",
          "type": "address"
        },
        {
          "indexed": true,
          "internalType": "address",
          "name": "merchant",
          "type": "address"
        },
        {
          "indexed": false,
          "internalType": "uint8",
          "name": "consecutiveFailures",
          "type": "uint8"
        },
        {
          "indexed": false,
          "internalType": "uint32",
          "name": "endTime",
          "type": "uint32"
        }
      ],
      "name": "PolicyCancelledByFailure",
      "type": "event"
    },
    {
      "anonymous": false,
      "inputs": [
        {
          "indexed": true,
          "internalType": "bytes32",
          "name": "policyId",
          "type": "bytes32"
        },
        {
          "indexed": true,
          "internalType": "address",
          "name": "payer",
          "type": "address"
        },
        {
          "indexed": true,
          "internalType": "address",
          "name": "merchant",
          "type": "address"
        },
        {
          "indexed": false,
          "internalType": "uint128",
          "name": "chargeAmount",
          "type": "uint128"
        },
        {
          "indexed": false,
          "internalType": "uint32",
          "name": "interval",
          "type": "uint32"
        },
        {
          "indexed": false,
          "internalType": "uint128",
          "name": "spendingCap",
          "type": "uint128"
        },
        {
          "indexed": false,
          "internalType": "string",
          "name": "metadataUrl",
          "type": "string"
        }
      ],
      "name": "PolicyCreated",
      "type": "event"
    },
    {
      "anonymous": false,
      "inputs": [
        {
          "indexed": true,
          "internalType": "bytes32",
          "name": "policyId",
          "type": "bytes32"
        },
        {
          "indexed": true,
          "internalType": "address",
          "name": "payer",
          "type": "address"
        },
        {
          "indexed": true,
          "internalType": "address",
          "name": "merchant",
          "type": "address"
        },
        {
          "indexed": false,
          "internalType": "uint32",
          "name": "endTime",
          "type": "uint32"
        }
      ],
      "name": "PolicyRevoked",
      "type": "event"
    },
    {
      "inputs": [],
      "name": "BPS_DENOMINATOR",
      "outputs": [
        {
          "internalType": "uint256",
          "name": "",
          "type": "uint256"
        }
      ],
      "stateMutability": "view",
      "type": "function"
    },
    {
      "inputs": [],
      "name": "MAX_INTERVAL",
      "outputs": [
        {
          "internalType": "uint256",
          "name": "",
          "type": "uint256"
        }
      ],
      "stateMutability": "view",
      "type": "function"
    },
    {
      "inputs": [],
      "name": "MAX_RETRIES",
      "outputs": [
        {
          "internalType": "uint8",
          "name": "",
          "type": "uint8"
        }
      ],
      "stateMutability": "view",
      "type": "function"
    },
    {
      "inputs": [],
      "name": "MIN_INTERVAL",
      "outputs": [
        {
          "internalType": "uint256",
          "name": "",
          "type": "uint256"
        }
      ],
      "stateMutability": "view",
      "type": "function"
    },
    {
      "inputs": [],
      "name": "PROTOCOL_FEE_BPS",
      "outputs": [
        {
          "internalType": "uint256",
          "name": "",
          "type": "uint256"
        }
      ],
      "stateMutability": "view",
      "type": "function"
    },
    {
      "inputs": [],
      "name": "USDC",
      "outputs": [
        {
          "internalType": "contract IERC20",
          "name": "",
          "type": "address"
        }
      ],
      "stateMutability": "view",
      "type": "function"
    },
    {
      "inputs": [],
      "name": "accumulatedFees",
      "outputs": [
        {
          "internalType": "uint256",
          "name": "",
          "type": "uint256"
        }
      ],
      "stateMutability": "view",
      "type": "function"
    },
    {
      "inputs": [
        {
          "internalType": "bytes32[]",
          "name": "policyIds",
          "type": "bytes32[]"
        }
      ],
      "name": "batchCharge",
      "outputs": [
        {
          "internalType": "bool[]",
          "name": "results",
          "type": "bool[]"
        }
      ],
      "stateMutability": "nonpayable",
      "type": "function"
    },
    {
      "inputs": [
        {
          "internalType": "bytes32",
          "name": "policyId",
          "type": "bytes32"
        }
      ],
      "name": "canCharge",
      "outputs": [
        {
          "internalType": "bool",
          "name": "",
          "type": "bool"
        },
        {
          "internalType": "string",
          "name": "",
          "type": "string"
        }
      ],
      "stateMutability": "view",
      "type": "function"
    },
    {
      "inputs": [
        {
          "internalType": "bytes32",
          "name": "policyId",
          "type": "bytes32"
        }
      ],
      "name": "cancelFailedPolicy",
      "outputs": [],
      "stateMutability": "nonpayable",
      "type": "function"
    },
    {
      "inputs": [
        {
          "internalType": "bytes32",
          "name": "policyId",
          "type": "bytes32"
        }
      ],
      "name": "charge",
      "outputs": [
        {
          "internalType": "bool",
          "name": "success",
          "type": "bool"
        }
      ],
      "stateMutability": "nonpayable",
      "type": "function"
    },
    {
      "inputs": [
        {
          "internalType": "address",
          "name": "merchant",
          "type": "address"
        },
        {
          "internalType": "uint128",
          "name": "chargeAmount",
          "type": "uint128"
        },
        {
          "internalType": "uint32",
          "name": "interval",
          "type": "uint32"
        },
        {
          "internalType": "uint128",
          "name": "spendingCap",
          "type": "uint128"
        },
        {
          "internalType": "string",
          "name": "metadataUrl",
          "type": "string"
        }
      ],
      "name": "createPolicy",
      "outputs": [
        {
          "internalType": "bytes32",
          "name": "policyId",
          "type": "bytes32"
        }
      ],
      "stateMutability": "nonpayable",
      "type": "function"
    },
    {
      "inputs": [],
      "name": "feeRecipient",
      "outputs": [
        {
          "internalType": "address",
          "name": "",
          "type": "address"
        }
      ],
      "stateMutability": "view",
      "type": "function"
    },
    {
      "inputs": [
        {
          "internalType": "bytes32",
          "name": "policyId",
          "type": "bytes32"
        }
      ],
      "name": "getChargeBreakdown",
      "outputs": [
        {
          "internalType": "uint256",
          "name": "total",
          "type": "uint256"
        },
        {
          "internalType": "uint256",
          "name": "merchantReceives",
          "type": "uint256"
        },
        {
          "internalType": "uint256",
          "name": "protocolFee",
          "type": "uint256"
        }
      ],
      "stateMutability": "view",
      "type": "function"
    },
    {
      "inputs": [
        {
          "internalType": "bytes32",
          "name": "policyId",
          "type": "bytes32"
        }
      ],
      "name": "getNextChargeTime",
      "outputs": [
        {
          "internalType": "uint256",
          "name": "",
          "type": "uint256"
        }
      ],
      "stateMutability": "view",
      "type": "function"
    },
    {
      "inputs": [
        {
          "internalType": "bytes32",
          "name": "policyId",
          "type": "bytes32"
        }
      ],
      "name": "getRemainingAllowance",
      "outputs": [
        {
          "internalType": "uint128",
          "name": "",
          "type": "uint128"
        }
      ],
      "stateMutability": "view",
      "type": "function"
    },
    {
      "inputs": [],
      "name": "getStats",
      "outputs": [
        {
          "internalType": "uint256",
          "name": "",
          "type": "uint256"
        },
        {
          "internalType": "uint256",
          "name": "",
          "type": "uint256"
        },
        {
          "internalType": "uint256",
          "name": "",
          "type": "uint256"
        }
      ],
      "stateMutability": "view",
      "type": "function"
    },
    {
      "inputs": [],
      "name": "owner",
      "outputs": [
        {
          "internalType": "address",
          "name": "",
          "type": "address"
        }
      ],
      "stateMutability": "view",
      "type": "function"
    },
    {
      "inputs": [
        {
          "internalType": "bytes32",
          "name": "",
          "type": "bytes32"
        }
      ],
      "name": "policies",
      "outputs": [
        {
          "internalType": "address",
          "name": "payer",
          "type": "address"
        },
        {
          "internalType": "address",
          "name": "merchant",
          "type": "address"
        },
        {
          "internalType": "uint128",
          "name": "chargeAmount",
          "type": "uint128"
        },
        {
          "internalType": "uint128",
          "name": "spendingCap",
          "type": "uint128"
        },
        {
          "internalType": "uint128",
          "name": "totalSpent",
          "type": "uint128"
        },
        {
          "internalType": "uint32",
          "name": "interval",
          "type": "uint32"
        },
        {
          "internalType": "uint32",
          "name": "lastCharged",
          "type": "uint32"
        },
        {
          "internalType": "uint32",
          "name": "chargeCount",
          "type": "uint32"
        },
        {
          "internalType": "uint8",
          "name": "consecutiveFailures",
          "type": "uint8"
        },
        {
          "internalType": "uint32",
          "name": "endTime",
          "type": "uint32"
        },
        {
          "internalType": "bool",
          "name": "active",
          "type": "bool"
        },
        {
          "internalType": "string",
          "name": "metadataUrl",
          "type": "string"
        }
      ],
      "stateMutability": "view",
      "type": "function"
    },
    {
      "inputs": [],
      "name": "policyCount",
      "outputs": [
        {
          "internalType": "uint256",
          "name": "",
          "type": "uint256"
        }
      ],
      "stateMutability": "view",
      "type": "function"
    },
    {
      "inputs": [],
      "name": "renounceOwnership",
      "outputs": [],
      "stateMutability": "nonpayable",
      "type": "function"
    },
    {
      "inputs": [
        {
          "internalType": "bytes32",
          "name": "policyId",
          "type": "bytes32"
        }
      ],
      "name": "revokePolicy",
      "outputs": [],
      "stateMutability": "nonpayable",
      "type": "function"
    },
    {
      "inputs": [
        {
          "internalType": "address",
          "name": "newRecipient",
          "type": "address"
        }
      ],
      "name": "setFeeRecipient",
      "outputs": [],
      "stateMutability": "nonpayable",
      "type": "function"
    },
    {
      "inputs": [],
      "name": "totalChargesProcessed",
      "outputs": [
        {
          "internalType": "uint256",
          "name": "",
          "type": "uint256"
        }
      ],
      "stateMutability": "view",
      "type": "function"
    },
    {
      "inputs": [],
      "name": "totalPoliciesCreated",
      "outputs": [
        {
          "internalType": "uint256",
          "name": "",
          "type": "uint256"
        }
      ],
      "stateMutability": "view",
      "type": "function"
    },
    {
      "inputs": [],
      "name": "totalVolumeProcessed",
      "outputs": [
        {
          "internalType": "uint256",
          "name": "",
          "type": "uint256"
        }
      ],
      "stateMutability": "view",
      "type": "function"
    },
    {
      "inputs": [
        {
          "internalType": "address",
          "name": "newOwner",
          "type": "address"
        }
      ],
      "name": "transferOwnership",
      "outputs": [],
      "stateMutability": "nonpayable",
      "type": "function"
    },
    {
      "inputs": [],
      "name": "withdrawFees",
      "outputs": [],
      "stateMutability": "nonpayable",
      "type": "function"
    }
  ],
  "bytecode": "0x60a060405234801561000f575f5ffd5b50604051613e49380380613e4983398181016040528101906100319190610255565b3360015f819055505f73ffffffffffffffffffffffffffffffffffffffff168173ffffffffffffffffffffffffffffffffffffffff16036100a9575f6040517f1e4fbdf70000000000000000000000000000000000000000000000000000000081526004016100a091906102a2565b60405180910390fd5b6100b88161013460201b60201c565b508173ffffffffffffffffffffffffffffffffffffffff1660808173ffffffffffffffffffffffffffffffffffffffff16815250508060055f6101000a81548173ffffffffffffffffffffffffffffffffffffffff021916908373ffffffffffffffffffffffffffffffffffffffff16021790555050506102bb565b5f60015f9054906101000a900473ffffffffffffffffffffffffffffffffffffffff1690508160015f6101000a81548173ffffffffffffffffffffffffffffffffffffffff021916908373ffffffffffffffffffffffffffffffffffffffff1602179055508173ffffffffffffffffffffffffffffffffffffffff168173ffffffffffffffffffffffffffffffffffffffff167f8be0079c531659141344cd1fd0a4f28419497f9722a3daafe3b4186f6b6457e060405160405180910390a35050565b5f5ffd5b5f73ffffffffffffffffffffffffffffffffffffffff82169050919050565b5f610224826101fb565b9050919050565b6102348161021a565b811461023e575f5ffd5b50565b5f8151905061024f8161022b565b92915050565b5f5f6040838503121561026b5761026a6101f7565b5b5f61027885828601610241565b925050602061028985828601610241565b9150509250929050565b61029c8161021a565b82525050565b5f6020820190506102b55f830184610293565b92915050565b608051613b296103205f395f818161091901528181610a5901528181610d0201528181610d8101528181610f680152818161104d015281816115a4015281816116470152818161179f0152818161187601528181611d180152611e4d0152613b295ff3fe608060405234801561000f575f5ffd5b50600436106101c2575f3560e01c806399d9b385116100f7578063de54d42911610095578063eb6706901161006f578063eb6706901461050a578063f2fde38b14610526578063f4b6f03c14610542578063fede611414610560576101c2565b8063de54d429146104b2578063e1a45218146104d0578063e74b981b146104ee576101c2565b8063c0368740116100d1578063c036874014610409578063c59d484714610427578063c8754ce014610447578063ddbfd8ef14610477576101c2565b806399d9b3851461038a578063a226ccb0146103bb578063be378228146103eb576101c2565b8063476343ee11610164578063715018a61161013e578063715018a61461032857806389a30271146103325780638da5cb5b1461035057806395950c391461036e576101c2565b8063476343ee146102e257806356a1c1ab146102ec578063587f5ed71461030a576101c2565b8063357dfebc116101a0578063357dfebc14610246578063376bfb121461027657806346904840146102a657806346ebbdb0146102c4576101c2565b80630949782a146101c65780630b465104146101f65780632718c14f14610228575b5f5ffd5b6101e060048036038101906101db9190612a89565b61057e565b6040516101ed9190612acc565b60405180910390f35b610210600480360381019061020b9190612a89565b6105f5565b60405161021f93929190612ae5565b60405180910390f35b610230610661565b60405161023d9190612acc565b60405180910390f35b610260600480360381019061025b9190612a89565b610667565b60405161026d9190612b34565b60405180910390f35b610290600480360381019061028b9190612c86565b610e45565b60405161029d9190612d2b565b60405180910390f35b6102ae611707565b6040516102bb9190612d53565b60405180910390f35b6102cc61172c565b6040516102d99190612d87565b60405180910390f35b6102ea611731565b005b6102f4611855565b6040516103019190612acc565b60405180910390f35b61031261185b565b60405161031f9190612acc565b60405180910390f35b610330611861565b005b61033a611874565b6040516103479190612dfb565b60405180910390f35b610358611898565b6040516103659190612d53565b60405180910390f35b61038860048036038101906103839190612a89565b6118c0565b005b6103a4600480360381019061039f9190612a89565b611a81565b6040516103b2929190612e84565b60405180910390f35b6103d560048036038101906103d09190612a89565b611f68565b6040516103e29190612ec1565b60405180910390f35b6103f36120b5565b6040516104009190612acc565b60405180910390f35b6104116120ba565b60405161041e9190612acc565b60405180910390f35b61042f6120bf565b60405161043e93929190612ae5565b60405180910390f35b610461600480360381019061045c9190612f2f565b6120d6565b60405161046e9190613031565b60405180910390f35b610491600480360381019061048c9190612a89565b61227d565b6040516104a99c9b9a99989796959493929190613060565b60405180910390f35b6104ba612448565b6040516104c79190612acc565b60405180910390f35b6104d861244e565b6040516104e59190612acc565b60405180910390f35b6105086004803603810190610503919061311f565b612454565b005b610524600480360381019061051f9190612a89565b61249f565b005b610540600480360381019061053b919061311f565b612660565b005b61054a6126e4565b6040516105579190612acc565b60405180910390f35b6105686126ea565b6040516105759190612acc565b60405180910390f35b5f5f60025f8481526020019081526020015f2090508060040160049054906101000a900460ff166105b2575f9150506105f0565b8060030160109054906101000a900463ffffffff168160030160149054906101000a900463ffffffff166105e69190613177565b63ffffffff169150505b919050565b5f5f5f5f60025f8681526020019081526020015f209050806002015f9054906101000a90046fffffffffffffffffffffffffffffffff166fffffffffffffffffffffffffffffffff169350610649846126f2565b9150818461065791906131ae565b9250509193909250565b60085481565b5f610670612714565b5f60025f8481526020019081526020015f2090508060040160049054906101000a900460ff166106cc576040517f8966b51f00000000000000000000000000000000000000000000000000000000815260040160405180910390fd5b600360ff1681600301601c9054906101000a900460ff1660ff161061071d576040517f5c5a26ee00000000000000000000000000000000000000000000000000000000815260040160405180910390fd5b8060030160109054906101000a900463ffffffff168160030160149054906101000a900463ffffffff166107519190613177565b63ffffffff16421015610790576040517f6ffe446a00000000000000000000000000000000000000000000000000000000815260040160405180910390fd5b5f8160020160109054906101000a90046fffffffffffffffffffffffffffffffff166fffffffffffffffffffffffffffffffff1611801561085d57508060020160109054906101000a90046fffffffffffffffffffffffffffffffff166fffffffffffffffffffffffffffffffff16816002015f9054906101000a90046fffffffffffffffffffffffffffffffff16826003015f9054906101000a90046fffffffffffffffffffffffffffffffff1661084991906131e1565b6fffffffffffffffffffffffffffffffff16115b15610894576040517f6d03950f00000000000000000000000000000000000000000000000000000000815260040160405180910390fd5b5f816002015f9054906101000a90046fffffffffffffffffffffffffffffffff166fffffffffffffffffffffffffffffffff1690505f825f015f9054906101000a900473ffffffffffffffffffffffffffffffffffffffff1690505f836001015f9054906101000a900473ffffffffffffffffffffffffffffffffffffffff169050827f000000000000000000000000000000000000000000000000000000000000000073ffffffffffffffffffffffffffffffffffffffff1663dd62ed3e84306040518363ffffffff1660e01b8152600401610972929190613224565b602060405180830381865afa15801561098d573d5f5f3e3d5ffd5b505050506040513d601f19601f820116820180604052508101906109b19190613275565b1015610a565783600301601c81819054906101000a900460ff16809291906109d8906132a0565b91906101000a81548160ff021916908360ff16021790555050428460030160146101000a81548163ffffffff021916908363ffffffff160217905550857f1d64a0c5c84644046fe2cd461a156dcb1ba43dc9b732231cb7e4fca63c0b46ef604051610a4290613312565b60405180910390a25f945050505050610e38565b827f000000000000000000000000000000000000000000000000000000000000000073ffffffffffffffffffffffffffffffffffffffff166370a08231846040518263ffffffff1660e01b8152600401610ab09190612d53565b602060405180830381865afa158015610acb573d5f5f3e3d5ffd5b505050506040513d601f19601f82011682018060405250810190610aef9190613275565b1015610b945783600301601c81819054906101000a900460ff1680929190610b16906132a0565b91906101000a81548160ff021916908360ff16021790555050428460030160146101000a81548163ffffffff021916908363ffffffff160217905550857f1d64a0c5c84644046fe2cd461a156dcb1ba43dc9b732231cb7e4fca63c0b46ef604051610b809061337a565b60405180910390a25f945050505050610e38565b428460030160146101000a81548163ffffffff021916908363ffffffff160217905550836002015f9054906101000a90046fffffffffffffffffffffffffffffffff16846003015f8282829054906101000a90046fffffffffffffffffffffffffffffffff16610c0491906131e1565b92506101000a8154816fffffffffffffffffffffffffffffffff02191690836fffffffffffffffffffffffffffffffff16021790555083600301601881819054906101000a900463ffffffff1680929190610c5e90613398565b91906101000a81548163ffffffff021916908363ffffffff160217905550505f84600301601c6101000a81548160ff021916908360ff16021790555060075f815480929190610cac906133c3565b9190505550836002015f9054906101000a90046fffffffffffffffffffffffffffffffff166fffffffffffffffffffffffffffffffff1660085f828254610cf3919061340a565b92505081905550610d478230857f000000000000000000000000000000000000000000000000000000000000000073ffffffffffffffffffffffffffffffffffffffff16612758909392919063ffffffff16565b5f610d51846126f2565b90508060045f828254610d64919061340a565b925050819055505f8185610d7891906131ae565b9050610dc583827f000000000000000000000000000000000000000000000000000000000000000073ffffffffffffffffffffffffffffffffffffffff166127da9092919063ffffffff16565b8273ffffffffffffffffffffffffffffffffffffffff168473ffffffffffffffffffffffffffffffffffffffff16897f2ad7c358d48f5558982086981282a1b57f958dd1a0573948fd99807783ebfd888486604051610e2592919061343d565b60405180910390a4600196505050505050505b610e40612859565b919050565b5f610e4e612714565b5f73ffffffffffffffffffffffffffffffffffffffff168773ffffffffffffffffffffffffffffffffffffffff1603610eb3576040517fc0b6c91900000000000000000000000000000000000000000000000000000000815260040160405180910390fd5b5f866fffffffffffffffffffffffffffffffff1603610efe576040517f2c5211c600000000000000000000000000000000000000000000000000000000815260040160405180910390fd5b603c8563ffffffff161080610f1c57506301e133808563ffffffff16115b15610f53576040517f5fabb61000000000000000000000000000000000000000000000000000000000815260040160405180910390fd5b856fffffffffffffffffffffffffffffffff167f000000000000000000000000000000000000000000000000000000000000000073ffffffffffffffffffffffffffffffffffffffff1663dd62ed3e33306040518363ffffffff1660e01b8152600401610fc1929190613224565b602060405180830381865afa158015610fdc573d5f5f3e3d5ffd5b505050506040513d601f19601f820116820180604052508101906110009190613275565b1015611038576040517f13be252b00000000000000000000000000000000000000000000000000000000815260040160405180910390fd5b856fffffffffffffffffffffffffffffffff167f000000000000000000000000000000000000000000000000000000000000000073ffffffffffffffffffffffffffffffffffffffff166370a08231336040518263ffffffff1660e01b81526004016110a49190612d53565b602060405180830381865afa1580156110bf573d5f5f3e3d5ffd5b505050506040513d601f19601f820116820180604052508101906110e39190613275565b101561111b576040517ff4d678b800000000000000000000000000000000000000000000000000000000815260040160405180910390fd5b33874260035f815480929190611130906133c3565b9190505560405160200161114794939291906134c9565b6040516020818303038152906040528051906020012090506040518061018001604052803373ffffffffffffffffffffffffffffffffffffffff1681526020018873ffffffffffffffffffffffffffffffffffffffff168152602001876fffffffffffffffffffffffffffffffff168152602001856fffffffffffffffffffffffffffffffff168152602001876fffffffffffffffffffffffffffffffff1681526020018663ffffffff1681526020014263ffffffff168152602001600163ffffffff1681526020015f60ff1681526020015f63ffffffff16815260200160011515815260200184848080601f0160208091040260200160405190810160405280939291908181526020018383808284375f81840152601f19601f8201169050808301925050505050505081525060025f8381526020019081526020015f205f820151815f015f6101000a81548173ffffffffffffffffffffffffffffffffffffffff021916908373ffffffffffffffffffffffffffffffffffffffff1602179055506020820151816001015f6101000a81548173ffffffffffffffffffffffffffffffffffffffff021916908373ffffffffffffffffffffffffffffffffffffffff1602179055506040820151816002015f6101000a8154816fffffffffffffffffffffffffffffffff02191690836fffffffffffffffffffffffffffffffff16021790555060608201518160020160106101000a8154816fffffffffffffffffffffffffffffffff02191690836fffffffffffffffffffffffffffffffff1602179055506080820151816003015f6101000a8154816fffffffffffffffffffffffffffffffff02191690836fffffffffffffffffffffffffffffffff16021790555060a08201518160030160106101000a81548163ffffffff021916908363ffffffff16021790555060c08201518160030160146101000a81548163ffffffff021916908363ffffffff16021790555060e08201518160030160186101000a81548163ffffffff021916908363ffffffff16021790555061010082015181600301601c6101000a81548160ff021916908360ff160217905550610120820151816004015f6101000a81548163ffffffff021916908363ffffffff1602179055506101408201518160040160046101000a81548160ff0219169083151502179055506101608201518160050190816114c09190613737565b5090505060065f8154809291906114d6906133c3565b919050555060075f8154809291906114ed906133c3565b9190505550856fffffffffffffffffffffffffffffffff1660085f828254611515919061340a565b925050819055508673ffffffffffffffffffffffffffffffffffffffff163373ffffffffffffffffffffffffffffffffffffffff16827f18e994643fd316c34af9a28ece1ca22cf0cda656e7f80417ba33bcfa665e3fb68989898989604051611582959493929190613840565b60405180910390a46115e93330886fffffffffffffffffffffffffffffffff167f000000000000000000000000000000000000000000000000000000000000000073ffffffffffffffffffffffffffffffffffffffff16612758909392919063ffffffff16565b5f611605876fffffffffffffffffffffffffffffffff166126f2565b90508060045f828254611618919061340a565b925050819055505f81886fffffffffffffffffffffffffffffffff1661163e91906131ae565b905061168b89827f000000000000000000000000000000000000000000000000000000000000000073ffffffffffffffffffffffffffffffffffffffff166127da9092919063ffffffff16565b8873ffffffffffffffffffffffffffffffffffffffff163373ffffffffffffffffffffffffffffffffffffffff16847f2ad7c358d48f5558982086981282a1b57f958dd1a0573948fd99807783ebfd8884866040516116eb92919061343d565b60405180910390a450506116fd612859565b9695505050505050565b60055f9054906101000a900473ffffffffffffffffffffffffffffffffffffffff1681565b600381565b5f60045490505f8103611770576040517fd0d04f6000000000000000000000000000000000000000000000000000000000815260040160405180910390fd5b5f6004819055506117e360055f9054906101000a900473ffffffffffffffffffffffffffffffffffffffff16827f000000000000000000000000000000000000000000000000000000000000000073ffffffffffffffffffffffffffffffffffffffff166127da9092919063ffffffff16565b60055f9054906101000a900473ffffffffffffffffffffffffffffffffffffffff1673ffffffffffffffffffffffffffffffffffffffff167fc0819c13be868895eb93e40eaceb96de976442fa1d404e5c55f14bb65a8c489a8260405161184a9190612acc565b60405180910390a250565b60065481565b60045481565b611869612862565b6118725f6128e9565b565b7f000000000000000000000000000000000000000000000000000000000000000081565b5f60015f9054906101000a900473ffffffffffffffffffffffffffffffffffffffff16905090565b5f60025f8381526020019081526020015f2090508060040160049054906101000a900460ff1661191c576040517f8966b51f00000000000000000000000000000000000000000000000000000000815260040160405180910390fd5b600360ff1681600301601c9054906101000a900460ff1660ff16101561196e576040517fb14bb7c100000000000000000000000000000000000000000000000000000000815260040160405180910390fd5b5f8160040160046101000a81548160ff02191690831515021790555042816004015f6101000a81548163ffffffff021916908363ffffffff160217905550806001015f9054906101000a900473ffffffffffffffffffffffffffffffffffffffff1673ffffffffffffffffffffffffffffffffffffffff16815f015f9054906101000a900473ffffffffffffffffffffffffffffffffffffffff1673ffffffffffffffffffffffffffffffffffffffff16837fd26f39416d10957b55b690643fdd1f2ade47b446d23cad789268b1967a05fd0984600301601c9054906101000a900460ff16856004015f9054906101000a900463ffffffff16604051611a7592919061388c565b60405180910390a45050565b5f60605f60025f8581526020019081526020015f2090508060040160049054906101000a900460ff16611aef575f6040518060400160405280601181526020017f506f6c696379206e6f74206163746976650000000000000000000000000000008152509250925050611f63565b600360ff1681600301601c9054906101000a900460ff1660ff1610611b4f575f6040518060400160405280602081526020017f4d617820636f6e7365637574697665206661696c7572657320726561636865648152509250925050611f63565b8060030160109054906101000a900463ffffffff168160030160149054906101000a900463ffffffff16611b839190613177565b63ffffffff16421015611bd1575f6040518060400160405280601281526020017f546f6f20736f6f6e20746f2063686172676500000000000000000000000000008152509250925050611f63565b5f8160020160109054906101000a90046fffffffffffffffffffffffffffffffff166fffffffffffffffffffffffffffffffff16118015611c9e57508060020160109054906101000a90046fffffffffffffffffffffffffffffffff166fffffffffffffffffffffffffffffffff16816002015f9054906101000a90046fffffffffffffffffffffffffffffffff16826003015f9054906101000a90046fffffffffffffffffffffffffffffffff16611c8a91906131e1565b6fffffffffffffffffffffffffffffffff16115b15611ce4575f6040518060400160405280601581526020017f5370656e64696e672063617020657863656564656400000000000000000000008152509250925050611f63565b806002015f9054906101000a90046fffffffffffffffffffffffffffffffff166fffffffffffffffffffffffffffffffff167f000000000000000000000000000000000000000000000000000000000000000073ffffffffffffffffffffffffffffffffffffffff1663dd62ed3e835f015f9054906101000a900473ffffffffffffffffffffffffffffffffffffffff16306040518363ffffffff1660e01b8152600401611d93929190613224565b602060405180830381865afa158015611dae573d5f5f3e3d5ffd5b505050506040513d601f19601f82011682018060405250810190611dd29190613275565b1015611e19575f6040518060400160405280601681526020017f496e73756666696369656e7420616c6c6f77616e6365000000000000000000008152509250925050611f63565b806002015f9054906101000a90046fffffffffffffffffffffffffffffffff166fffffffffffffffffffffffffffffffff167f000000000000000000000000000000000000000000000000000000000000000073ffffffffffffffffffffffffffffffffffffffff166370a08231835f015f9054906101000a900473ffffffffffffffffffffffffffffffffffffffff166040518263ffffffff1660e01b8152600401611ec69190612d53565b602060405180830381865afa158015611ee1573d5f5f3e3d5ffd5b505050506040513d601f19601f82011682018060405250810190611f059190613275565b1015611f4c575f6040518060400160405280601481526020017f496e73756666696369656e742062616c616e63650000000000000000000000008152509250925050611f63565b600160405180602001604052805f81525092509250505b915091565b5f5f60025f8481526020019081526020015f2090508060040160049054906101000a900460ff16611f9c575f9150506120b0565b5f8160020160109054906101000a90046fffffffffffffffffffffffffffffffff166fffffffffffffffffffffffffffffffff1603611fee576fffffffffffffffffffffffffffffffff9150506120b0565b8060020160109054906101000a90046fffffffffffffffffffffffffffffffff166fffffffffffffffffffffffffffffffff16816003015f9054906101000a90046fffffffffffffffffffffffffffffffff166fffffffffffffffffffffffffffffffff1610612061575f9150506120b0565b806003015f9054906101000a90046fffffffffffffffffffffffffffffffff168160020160109054906101000a90046fffffffffffffffffffffffffffffffff166120ac91906138b3565b9150505b919050565b60fa81565b603c81565b5f5f5f600654600754600854925092509250909192565b60608282905067ffffffffffffffff8111156120f5576120f4613516565b5b6040519080825280602002602001820160405280156121235781602001602082028036833780820191505090505b5090505f5f90505b83839050811015612276573073ffffffffffffffffffffffffffffffffffffffff1663357dfebc858584818110612165576121646138f6565b5b905060200201356040518263ffffffff1660e01b81526004016121889190612d2b565b6020604051808303815f875af19250505080156121c357506040513d601f19601f820116820180604052508101906121c0919061394d565b60015b612241575f8282815181106121db576121da6138f6565b5b602002602001019015159081151581525050838382818110612200576121ff6138f6565b5b905060200201357f1d64a0c5c84644046fe2cd461a156dcb1ba43dc9b732231cb7e4fca63c0b46ef604051612234906139c2565b60405180910390a2612269565b80838381518110612255576122546138f6565b5b602002602001019015159081151581525050505b808060010191505061212b565b5092915050565b6002602052805f5260405f205f91509050805f015f9054906101000a900473ffffffffffffffffffffffffffffffffffffffff1690806001015f9054906101000a900473ffffffffffffffffffffffffffffffffffffffff1690806002015f9054906101000a90046fffffffffffffffffffffffffffffffff16908060020160109054906101000a90046fffffffffffffffffffffffffffffffff1690806003015f9054906101000a90046fffffffffffffffffffffffffffffffff16908060030160109054906101000a900463ffffffff16908060030160149054906101000a900463ffffffff16908060030160189054906101000a900463ffffffff169080600301601c9054906101000a900460ff1690806004015f9054906101000a900463ffffffff16908060040160049054906101000a900460ff16908060050180546123c790613570565b80601f01602080910402602001604051908101604052809291908181526020018280546123f390613570565b801561243e5780601f106124155761010080835404028352916020019161243e565b820191905f5260205f20905b81548152906001019060200180831161242157829003601f168201915b505050505090508c565b60035481565b61271081565b61245c612862565b8060055f6101000a81548173ffffffffffffffffffffffffffffffffffffffff021916908373ffffffffffffffffffffffffffffffffffffffff16021790555050565b5f60025f8381526020019081526020015f2090503373ffffffffffffffffffffffffffffffffffffffff16815f015f9054906101000a900473ffffffffffffffffffffffffffffffffffffffff1673ffffffffffffffffffffffffffffffffffffffff161461253a576040517ff9d492db00000000000000000000000000000000000000000000000000000000815260040160405180910390fd5b8060040160049054906101000a900460ff16612582576040517f8966b51f00000000000000000000000000000000000000000000000000000000815260040160405180910390fd5b5f8160040160046101000a81548160ff02191690831515021790555042816004015f6101000a81548163ffffffff021916908363ffffffff160217905550806001015f9054906101000a900473ffffffffffffffffffffffffffffffffffffffff1673ffffffffffffffffffffffffffffffffffffffff163373ffffffffffffffffffffffffffffffffffffffff16837f36655ae5e2e06ee28888b7d8c3e3aed6b6de1209ec2432819e09183ec8dcd23a846004015f9054906101000a900463ffffffff1660405161265491906139e0565b60405180910390a45050565b612668612862565b5f73ffffffffffffffffffffffffffffffffffffffff168173ffffffffffffffffffffffffffffffffffffffff16036126d8575f6040517f1e4fbdf70000000000000000000000000000000000000000000000000000000081526004016126cf9190612d53565b60405180910390fd5b6126e1816128e9565b50565b60075481565b6301e1338081565b5f61271060fa8361270391906139f9565b61270d9190613a67565b9050919050565b60025f540361274f576040517f3ee5aeb500000000000000000000000000000000000000000000000000000000815260040160405180910390fd5b60025f81905550565b6127d4848573ffffffffffffffffffffffffffffffffffffffff166323b872dd86868660405160240161278d93929190613a97565b604051602081830303815290604052915060e01b6020820180517bffffffffffffffffffffffffffffffffffffffffffffffffffffffff83818316178352505050506129ac565b50505050565b612854838473ffffffffffffffffffffffffffffffffffffffff1663a9059cbb858560405160240161280d929190613acc565b604051602081830303815290604052915060e01b6020820180517bffffffffffffffffffffffffffffffffffffffffffffffffffffffff83818316178352505050506129ac565b505050565b60015f81905550565b61286a612a47565b73ffffffffffffffffffffffffffffffffffffffff16612888611898565b73ffffffffffffffffffffffffffffffffffffffff16146128e7576128ab612a47565b6040517f118cdaa70000000000000000000000000000000000000000000000000000000081526004016128de9190612d53565b60405180910390fd5b565b5f60015f9054906101000a900473ffffffffffffffffffffffffffffffffffffffff1690508160015f6101000a81548173ffffffffffffffffffffffffffffffffffffffff021916908373ffffffffffffffffffffffffffffffffffffffff1602179055508173ffffffffffffffffffffffffffffffffffffffff168173ffffffffffffffffffffffffffffffffffffffff167f8be0079c531659141344cd1fd0a4f28419497f9722a3daafe3b4186f6b6457e060405160405180910390a35050565b5f5f60205f8451602086015f885af1806129cb576040513d5f823e3d81fd5b3d92505f519150505f82146129e45760018114156129ff565b5f8473ffffffffffffffffffffffffffffffffffffffff163b145b15612a4157836040517f5274afe7000000000000000000000000000000000000000000000000000000008152600401612a389190612d53565b60405180910390fd5b50505050565b5f33905090565b5f5ffd5b5f5ffd5b5f819050919050565b612a6881612a56565b8114612a72575f5ffd5b50565b5f81359050612a8381612a5f565b92915050565b5f60208284031215612a9e57612a9d612a4e565b5b5f612aab84828501612a75565b91505092915050565b5f819050919050565b612ac681612ab4565b82525050565b5f602082019050612adf5f830184612abd565b92915050565b5f606082019050612af85f830186612abd565b612b056020830185612abd565b612b126040830184612abd565b949350505050565b5f8115159050919050565b612b2e81612b1a565b82525050565b5f602082019050612b475f830184612b25565b92915050565b5f73ffffffffffffffffffffffffffffffffffffffff82169050919050565b5f612b7682612b4d565b9050919050565b612b8681612b6c565b8114612b90575f5ffd5b50565b5f81359050612ba181612b7d565b92915050565b5f6fffffffffffffffffffffffffffffffff82169050919050565b612bcb81612ba7565b8114612bd5575f5ffd5b50565b5f81359050612be681612bc2565b92915050565b5f63ffffffff82169050919050565b612c0481612bec565b8114612c0e575f5ffd5b50565b5f81359050612c1f81612bfb565b92915050565b5f5ffd5b5f5ffd5b5f5ffd5b5f5f83601f840112612c4657612c45612c25565b5b8235905067ffffffffffffffff811115612c6357612c62612c29565b5b602083019150836001820283011115612c7f57612c7e612c2d565b5b9250929050565b5f5f5f5f5f5f60a08789031215612ca057612c9f612a4e565b5b5f612cad89828a01612b93565b9650506020612cbe89828a01612bd8565b9550506040612ccf89828a01612c11565b9450506060612ce089828a01612bd8565b935050608087013567ffffffffffffffff811115612d0157612d00612a52565b5b612d0d89828a01612c31565b92509250509295509295509295565b612d2581612a56565b82525050565b5f602082019050612d3e5f830184612d1c565b92915050565b612d4d81612b6c565b82525050565b5f602082019050612d665f830184612d44565b92915050565b5f60ff82169050919050565b612d8181612d6c565b82525050565b5f602082019050612d9a5f830184612d78565b92915050565b5f819050919050565b5f612dc3612dbe612db984612b4d565b612da0565b612b4d565b9050919050565b5f612dd482612da9565b9050919050565b5f612de582612dca565b9050919050565b612df581612ddb565b82525050565b5f602082019050612e0e5f830184612dec565b92915050565b5f81519050919050565b5f82825260208201905092915050565b8281835e5f83830152505050565b5f601f19601f8301169050919050565b5f612e5682612e14565b612e608185612e1e565b9350612e70818560208601612e2e565b612e7981612e3c565b840191505092915050565b5f604082019050612e975f830185612b25565b8181036020830152612ea98184612e4c565b90509392505050565b612ebb81612ba7565b82525050565b5f602082019050612ed45f830184612eb2565b92915050565b5f5f83601f840112612eef57612eee612c25565b5b8235905067ffffffffffffffff811115612f0c57612f0b612c29565b5b602083019150836020820283011115612f2857612f27612c2d565b5b9250929050565b5f5f60208385031215612f4557612f44612a4e565b5b5f83013567ffffffffffffffff811115612f6257612f61612a52565b5b612f6e85828601612eda565b92509250509250929050565b5f81519050919050565b5f82825260208201905092915050565b5f819050602082019050919050565b612fac81612b1a565b82525050565b5f612fbd8383612fa3565b60208301905092915050565b5f602082019050919050565b5f612fdf82612f7a565b612fe98185612f84565b9350612ff483612f94565b805f5b8381101561302457815161300b8882612fb2565b975061301683612fc9565b925050600181019050612ff7565b5085935050505092915050565b5f6020820190508181035f8301526130498184612fd5565b905092915050565b61305a81612bec565b82525050565b5f610180820190506130745f83018f612d44565b613081602083018e612d44565b61308e604083018d612eb2565b61309b606083018c612eb2565b6130a8608083018b612eb2565b6130b560a083018a613051565b6130c260c0830189613051565b6130cf60e0830188613051565b6130dd610100830187612d78565b6130eb610120830186613051565b6130f9610140830185612b25565b81810361016083015261310c8184612e4c565b90509d9c50505050505050505050505050565b5f6020828403121561313457613133612a4e565b5b5f61314184828501612b93565b91505092915050565b7f4e487b71000000000000000000000000000000000000000000000000000000005f52601160045260245ffd5b5f61318182612bec565b915061318c83612bec565b9250828201905063ffffffff8111156131a8576131a761314a565b5b92915050565b5f6131b882612ab4565b91506131c383612ab4565b92508282039050818111156131db576131da61314a565b5b92915050565b5f6131eb82612ba7565b91506131f683612ba7565b925082820190506fffffffffffffffffffffffffffffffff81111561321e5761321d61314a565b5b92915050565b5f6040820190506132375f830185612d44565b6132446020830184612d44565b9392505050565b61325481612ab4565b811461325e575f5ffd5b50565b5f8151905061326f8161324b565b92915050565b5f6020828403121561328a57613289612a4e565b5b5f61329784828501613261565b91505092915050565b5f6132aa82612d6c565b915060ff82036132bd576132bc61314a565b5b600182019050919050565b7f496e73756666696369656e7420616c6c6f77616e6365000000000000000000005f82015250565b5f6132fc601683612e1e565b9150613307826132c8565b602082019050919050565b5f6020820190508181035f830152613329816132f0565b9050919050565b7f496e73756666696369656e742062616c616e63650000000000000000000000005f82015250565b5f613364601483612e1e565b915061336f82613330565b602082019050919050565b5f6020820190508181035f83015261339181613358565b9050919050565b5f6133a282612bec565b915063ffffffff82036133b8576133b761314a565b5b600182019050919050565b5f6133cd82612ab4565b91507fffffffffffffffffffffffffffffffffffffffffffffffffffffffffffffffff82036133ff576133fe61314a565b5b600182019050919050565b5f61341482612ab4565b915061341f83612ab4565b92508282019050808211156134375761343661314a565b5b92915050565b5f6040820190506134505f830185612eb2565b61345d6020830184612eb2565b9392505050565b5f8160601b9050919050565b5f61347a82613464565b9050919050565b5f61348b82613470565b9050919050565b6134a361349e82612b6c565b613481565b82525050565b5f819050919050565b6134c36134be82612ab4565b6134a9565b82525050565b5f6134d48287613492565b6014820191506134e48286613492565b6014820191506134f482856134b2565b60208201915061350482846134b2565b60208201915081905095945050505050565b7f4e487b71000000000000000000000000000000000000000000000000000000005f52604160045260245ffd5b7f4e487b71000000000000000000000000000000000000000000000000000000005f52602260045260245ffd5b5f600282049050600182168061358757607f821691505b60208210810361359a57613599613543565b5b50919050565b5f819050815f5260205f209050919050565b5f6020601f8301049050919050565b5f82821b905092915050565b5f600883026135fc7fffffffffffffffffffffffffffffffffffffffffffffffffffffffffffffffff826135c1565b61360686836135c1565b95508019841693508086168417925050509392505050565b5f61363861363361362e84612ab4565b612da0565b612ab4565b9050919050565b5f819050919050565b6136518361361e565b61366561365d8261363f565b8484546135cd565b825550505050565b5f5f905090565b61367c61366d565b613687818484613648565b505050565b5b818110156136aa5761369f5f82613674565b60018101905061368d565b5050565b601f8211156136ef576136c0816135a0565b6136c9846135b2565b810160208510156136d8578190505b6136ec6136e4856135b2565b83018261368c565b50505b505050565b5f82821c905092915050565b5f61370f5f19846008026136f4565b1980831691505092915050565b5f6137278383613700565b9150826002028217905092915050565b61374082612e14565b67ffffffffffffffff81111561375957613758613516565b5b6137638254613570565b61376e8282856136ae565b5f60209050601f83116001811461379f575f841561378d578287015190505b613797858261371c565b8655506137fe565b601f1984166137ad866135a0565b5f5b828110156137d4578489015182556001820191506020850194506020810190506137af565b868310156137f157848901516137ed601f891682613700565b8355505b6001600288020188555050505b505050505050565b828183375f83830152505050565b5f61381f8385612e1e565b935061382c838584613806565b61383583612e3c565b840190509392505050565b5f6080820190506138535f830188612eb2565b6138606020830187613051565b61386d6040830186612eb2565b8181036060830152613880818486613814565b90509695505050505050565b5f60408201905061389f5f830185612d78565b6138ac6020830184613051565b9392505050565b5f6138bd82612ba7565b91506138c883612ba7565b925082820390506fffffffffffffffffffffffffffffffff8111156138f0576138ef61314a565b5b92915050565b7f4e487b71000000000000000000000000000000000000000000000000000000005f52603260045260245ffd5b61392c81612b1a565b8114613936575f5ffd5b50565b5f8151905061394781613923565b92915050565b5f6020828403121561396257613961612a4e565b5b5f61396f84828501613939565b91505092915050565b7f43686172676520726576657274656400000000000000000000000000000000005f82015250565b5f6139ac600f83612e1e565b91506139b782613978565b602082019050919050565b5f6020820190508181035f8301526139d9816139a0565b9050919050565b5f6020820190506139f35f830184613051565b92915050565b5f613a0382612ab4565b9150613a0e83612ab4565b9250828202613a1c81612ab4565b91508282048414831517613a3357613a3261314a565b5b5092915050565b7f4e487b71000000000000000000000000000000000000000000000000000000005f52601260045260245ffd5b5f613a7182612ab4565b9150613a7c83612ab4565b925082613a8c57613a8b613a3a565b5b828204905092915050565b5f606082019050613aaa5f830186612d44565b613ab76020830185612d44565b613ac46040830184612abd565b949350505050565b5f604082019050613adf5f830185612d44565b613aec6020830184612abd565b939250505056fea2646970667358221220605f73d7ba25333e09bd46aa1618bb9f4ebba588c4de9839057edb1696c839cb64736f6c634300081c0033",
  "linkReferences": {},
  "deployedLinkReferences": {},
  "immutableReferences": {
    "950": [
      {
        "length": 32,
        "start": 2329
      },
      {
        "length": 32,
        "start": 2649
      },
      {
        "length": 32,
        "start": 3330
      },
      {
        "length": 32,
        "start": 3457
      },
      {
        "length": 32,
        "start": 3944
      },
      {
        "length": 32,
        "start": 4173
      },
      {
        "length": 32,
        "start": 5540
      },
      {
        "length": 32,
        "start": 5703
      },
      {
        "length": 32,
        "start": 6047
      },
      {
        "length": 32,
        "start": 6262
      },
      {
        "length": 32,
        "start": 7448
      },
      {
        "length": 32,
        "start": 7757
      }
    ]
  },
  "inputSourceName": "project/contracts/SubscriptionManager.sol",
  "buildInfoId": "solc-0_8_28-dc0dd948150c9772292be3faabc657f89946a23c"
}